:1000000014C0C2C02BC02AC029C028C027C026C027
:1000100025C024C023C022C021C020C01FC01EC0D4
:100020001DC01CC01BC01AC019C011241FBECFEDBB
:10003000CDBF10E0A0E6B0E0E4EDF2E002C0059034
:100040000D92A637B107D9F720E0A6E7B0E001C0CE
:100050001D92AB37B207E1F722D03AC1D1CF83E28C
:1000600080BF82E083BF8D9A0895892B41F08091F3
:1000700076008F3158F48F5F8093760007C08091AF
:100080007600882319F0815080937600E091760005
:10009000E695F0E0EF59FF4F80818CBF0895CF9334
:1000A000DF9300D0CDB7DD27DADF57D081B383618E
:1000B00081BB1FBC84E08EBD789400E010E0E12C91
:1000C000F12CCE01019652D08823D9F036D0298167
:1000D0003A81A901442750734115504341F52F73CC
:1000E000203119F0213139F025C081E090E0BDDFE9
:1000F0000E2D1F2DE6CF8E2D9F2DB7DF0E2D1F2D20
:10010000E0CF8FE19EE40197F1F700C000000F5FA0
:100110001F4F013092E01907A4F225B72F7A20640F
:1001200025BF25B7206225BF78948895CACF0E2DAC
:100130001F2DC7CF0E2D1F2DC4CF109279008EE03A
:1001400080937A00109278001092770085E0809377
:1001500060008BB780648BBF089585B7816085BFD1
:100160008A981FBC83E08EBDE8DF0895FC01909162
:100170007900992331F080917700909178009183F4
:1001800080838091790008951F920F920FB60F928D
:1001900011242F933F934F935F936F937F938F938C
:1001A0009F93AF93BF93CF93EF93FF938CB59DB580
:1001B000829902C0C0E001C0C2E09C012C5231090A
:1001C0002A31310510F4CC5F04C00E974D9708F02A
:1001D000B4DF209160002530F1F480917A008150E5
:1001E00080937A00209177003091780041E050E0D0
:1001F000BA0102C0660F771F8A95E2F7CB01822B06
:10020000932B909378008093770081E08093600037
:100210001DBC1CBC4BC0E22FF0E0EF58FF4F8081AB
:1002200090E002C095958795CA95E2F7382F337014
:10023000231711F0243010F080DF38C030936000B5
:10024000323041F480917A00815080937A00882383
:1002500011F12AC03130C9F480917A008150809325
:100260007A00209177003091780041E050E0BA01A7
:1002700002C0660F771F8A95E2F7CB01822B932B82
:1002800090937800809377000FC020917A0021111D
:100290000BC080FD09C086E08093600081E0809300
:1002A00079008BB78F7B8BBF1DBC1CBCFF91EF917E
:1002B000CF91BF91AF919F918F917F916F915F91FE
:1002C0004F913F912F910F900FBE0F901F90189557
:0402D000F894FFCFD0
:1002D40005FFC0804010040000000004104080C0EE
:0602E400FF01919BFB00ED
:00000001FF
