:1000000009C040C020C0FCC01EC01DC01CC01BC019
:100010001AC019C011241FBECFE9CDBF10E0A0E661
:10002000B0E0EEE7F2E002C005900D92A636B1070F
:10003000D9F720E0A6E6B0E001C01D92AC36B207C9
:10004000E1F7F9D01AC1DCCF10926A008EE08093FC
:100050006B00109269001092680085E08093600048
:100060008BB780648BBF0895FC0190916A0099233F
:1000700031F0809168009091690091838083809134
:100080006A0008951F920F920FB60F9211242F93BA
:100090003F934F935F936F937F938F939F93AF9310
:1000A000BF93CF93EF93FF9398B380E1892788BBE9
:1000B0008091660090916700B09902C0C0E001C0D5
:1000C000C2E09C01235331092F31310510F4CC5F7C
:1000D00004C04097829708F0B7DF20916000253078
:1000E00001F580916B00815080936B002091680036
:1000F0003091690041E050E0BA0102C0660F771FFD
:100100008A95E2F7CB01822B932B90936900809321
:10011000680081E080936000109267001092660092
:100120004DC0E22FF0E0EF59FF4F808190E002C018
:1001300095958795CA95E2F7382F3370231711F0FC
:10014000243010F081DF3AC030936000323041F447
:1001500080916B00815080936B00882311F12AC03D
:100160003130C9F480916B00815080936B002091F5
:1001700068003091690041E050E0BA0102C0660FAA
:10018000771F8A95E2F7CB01822B932B909369001E
:10019000809368000FC020916B0021110BC080FD7F
:1001A00009C086E08093600081E080936A008BB78D
:1001B0008F7B8BBF1092670010926600FF91EF91CA
:1001C000CF91BF91AF919F918F917F916F915F91EF
:1001D0004F913F912F910F900FBE0F901F90189548
:1001E00083E88FBD81E083BF89B7826089BF84E6E1
:1001F00086BF87B3896187BB85B7816085BF089556
:100200001F920F920FB60F9211248F939F9398B362
:1002100088E0892788BB80916600909167000196ED
:1002200090936700809366009F918F910F900FBE0F
:100230000F901F901895CF93DF9300D0CDB7DD2797
:10024000CFDF02DF789402E018ECCE0101960CDFDC
:100250008823D9F3F9DE89819A819C0122273073A2
:100260002115304391F78F73803119F0813119F0E6
:0E027000ECCF06BFEACF16BFE8CFF894FFCF61
:06027E000501919BFB004D
:00000001FF
